:020000040800F2
:1000000000500020211D0008191D0008191D0008BE
:10001000191D0008191D0008191D0008191D0008E8
:10002000191D0008191D0008191D0008191D0008D8
:10003000191D0008191D0008191D0008191D0008C8
:1000400080B485B000AF78600AE00023FB6003E075
:1000500000BFFB680133FB60FB68B3F5E15FF7D3DA
:100060007B685A1E7A60002BEFD100BF00BF1437A7
:10007000BD4680BC7047000080B500AF064800F068
:100080000FFF064800F092FD054800F03BFC0548D4
:1000900000F024FA00BF80BDD81E00089C1E000896
:1000A000C41E00085C1E000880B582B000AFFB1DB6
:1000B0001946002000F006FBBB1D1946012000F088
:1000C00001FB7B1D1946022000F0FCFA3B1D19467E
:1000D000032000F0F7FAFB1C1946042000F0F2FAA6
:1000E00000BF0837BD4680BD80B582B000AFFB1DA4
:1000F00019460B2000F0E6FABB1D19460C2000F053
:10010000E1FA7B1D19460D2000F0DCFA3B1D194673
:100110000E2000F0D7FA00BF0837BD4680BD80B57D
:1001200082B000AFFB1D19460F2000F0CBFABB1DBB
:100130001946102000F0C6FA7B1D1946112000F068
:10014000C1FA3B1D1946122000F0BCFA00BF083767
:10015000BD4680BD80B582B000AF40F2DC53FB806D
:100160005A237B7164233B710123FB70234B1B7863
:100170000133DBB203F00F03DAB2204B1A70FB88B5
:10018000DAB2FB881B0A9BB2DBB25340DAB27B794E
:100190005340DAB23B795340DAB2FB785340DAB2DB
:1001A000164B1B785340DBB2BB70BB7803F00F03D8
:1001B000DBB2BB70BB1D1946052000F0BBF97B1DEF
:1001C0001946062000F0B6F93B1D1946072000F03D
:1001D000B1F9FB1C1946082000F0ACF907490920C9
:1001E00000F0A8F9BB1C19460A2000F0A3F903206F
:1001F00000F03EFA00BF0837BD4680BD0400002075
:1002000080B500AFFFF738FF00F066FFFFF74CFF47
:10021000FFF76AFFFFF783FFFFF79CFF00F012FF75
:100220006420FFF70DFF00BFEEE7000080B485B04B
:1002300000AF0346FB800023FB8111E00E4B1968E1
:10024000FA8913465B0013445B000B441B88FA8851
:100250009A4202D1B7F90E3009E0FB890133FB81E4
:10026000064B1B88FA899A42E8D34FF0FF331846B1
:100270001437BD4680BC70470800002010000020E5
:1002800080B586B000AF0346B9607A60FB81FB8918
:100290001846FFF7CBFF0346FB82B7F91630002B59
:1002A00001DA002321E0BB68002B0BD0114B1A6848
:1002B000FB8A19460B465B000B445B0013445A88CB
:1002C000BB681A807B68002B0BD00A4B1A68FB8A2C
:1002D00019460B465B000B445B0013441A797B689C
:1002E0001A70FB8ADB00044A134418461837BD46CF
:1002F00080BD00BF080000201400002080B483B03F
:1003000000AF78600B467B8013467B707B887A68F1
:1003100013447A781A7000BF0C37BD4680BC704712
:1003200080B485B000AF7860084611461A4603468F
:100330007B800B467B7013463B707B780F2202FA62
:1003400003F3FB733B7803F00F027B7802FA03F3AD
:10035000BB737B887A6813441A78FB7BDB43DBB280
:100360001340D9B27B887A681344BA7B0A43D2B26D
:100370001A7000BF1437BD4680BC704780B483B08C
:1003800000AF78600B467B8013463B803B881B0A9E
:1003900099B27B887A681344CAB21A707B88013399
:1003A0007A6813443A88D2B21A7000BF0C37BD463F
:1003B00080BC704780B485B000AF786008461146B5
:1003C0001A4603467B800B467B7013463B707B7856
:1003D000012202FA03F3FB733B78012B0BD17B88DC
:1003E0007A68134419787B887A681344FA7B0A4345
:1003F000D2B21A700CE07B887A6813441978FB7BC0
:10040000DB43DAB27B88786803440A40D2B21A70C0
:1004100000BF1437BD4680BC704780B483B000AFC6
:1004200078600B467B807B887A6813441B7818467B
:100430000C37BD4680BC704780B483B000AF786095
:100440000B467B807B887A6813441B781BB21B02A7
:100450001AB27B88013379680B441B781BB21343B3
:100460001BB29BB218460C37BD4680BC704780B4A7
:1004700083B000AF78600B467B8013467B707B882F
:100480007A6813441A787B78012101FA03F3DBB20E
:100490001340DBB2002B01D0012300E000231846FB
:1004A0000C37BD4680BC704780B483B000AF786025
:1004B0000B467B8013467B707B887A6813441B78DD
:1004C0001A467B7842FA03F3DBB203F00F03DBB288
:1004D00018460C37BD4680BC7047000080B582B01E
:1004E00000AF78607B68002B15D07B681B680C4AD6
:1004F00013607B689A880B4B1A807B689B680A4A5A
:1005000013607B689A89094B1A80202200210848D1
:1005100001F036FC00E000BF0837BD4680BD00BFDB
:1005200008000020100000200C0000201200002015
:100530001400002080B588B000AF03463960FB800E
:100540003B68002B01D180238AE0474B1B88FA8847
:100550009A4201D3802383E0444B1A68FB88DB0076
:100560001344BB61BB691B8807F10F0207F110013F
:100570001846FFF785FE78617B69002B15D0FB7B61
:10058000002B12D1BB695A883B8A9A420DD2BB69B3
:10059000DB79002B09D1BB695B79102B07D1BB69D3
:1005A0005B8801333A8A934201D3802358E0BB69C8
:1005B0005B79102B0AD0102B4FDC082B0FD0082BA7
:1005C0004BDC012B37D0042B27D046E0BB69598880
:1005D0003B681B881A467869FFF7D0FE3FE0BB698D
:1005E0009B79022B10D13B681B78002B02D0012392
:1005F000FB7701E00023FB77BB695B88FA7F194634
:100600007869FFF77BFE2AE0BB6959883B681B7855
:100610001A467869FFF772FE21E03B681B7803F009
:100620000F03FB74BB695988BB691A79FB7C786935
:10063000FFF776FE13E03B681B78002B02D0012306
:10064000BB7701E00023BB77BB695988BB691A7986
:10065000BB7F7869FFF7AEFE01E0802300E0002356
:1006600018462037BD4680BD120000200C00002037
:1006700080B588B000AF0346FB8007F1190207F18F
:100680001A01FB881846FFF7FBFDF861FB69002B98
:1006900005D07B7E002B02D17B8B002B01D1012367
:1006A0000BE0FB69FB607B8BBB8207F10C02FB88D4
:1006B0001146184600F04AF9034618462037BD4651
:1006C00080BD000080B586B000AF03463960FB8076
:1006D0003B68002B01D180237CE0404B1B88FA88CB
:1006E0009A4201D3802375E03D4B1A68FB88DB00FA
:1006F00013447B617B691B8807F10D0207F10E0132
:100700001846FFF7BDFD38613B69002B0BD07B7BA2
:10071000012B08D17B695A88FB899A4203D27B69F5
:10072000DB79012B01D0802354E07B695B79102BAE
:100730000AD0102B4BDC082B11D0082B47DC012BE7
:100740002BD0042B36D042E07B695B881946386990
:10075000FFF772FE03461A463B681A8039E07B6950
:100760009B79022B0ED17B695B8819463869FFF7AC
:1007700054FE0346002B01D0012200E000223B681A
:100780001A7026E07B695B8819463869FFF745FED9
:1007900003461A463B681A701BE07B6959887B69DF
:1007A0001B791A463869FFF762FE03461A463B6812
:1007B0001A700EE07B6959887B691B791A46386983
:1007C000FFF772FE03461A463B681A7001E0802369
:1007D00000E0002318461837BD4680BD12000020F7
:1007E0000C00002080B584B000AF03463960FB8068
:1007F0003B68002B1BD03B681B68002B17D007F110
:10080000090207F10A01FB881846FFF739FDF86075
:10081000FB68002B0CD07B7A012B09D13B6819684F
:100820003B681B891A46F86801F0B2FA00E000BF85
:100830001037BD4680BD80B584B000AF0346FB8055
:1008400007F1090207F10A01FB881846FFF718FDB6
:10085000F860FB68002B02D07B7A002B00E000BF21
:100860001037BD4680BD000080B485B000AF0346A0
:10087000FB80114B1B681B68BB600023FB8110E0F1
:10088000FA8913465B0013445B001A46BB681344A5
:100890001B88FA889A4201D1FB8907E0FB89013362
:1008A000FB81FB89002BEBD04FF0FF331846143748
:1008B000BD4680BC704700BF3800002080B485B0C2
:1008C00000AF78600B467B8013463B800023FB81A2
:1008D0000CE0FB899B007A6813441B883A889A4293
:1008E00001D1FB8908E0FB890133FB81FA897B8810
:1008F0009A42EED34FF0FF3318461437BD4680BC02
:100900007047000080B483B000AF78607B68002B34
:1009100009D10B4B00221A700A4B00221A600A4BB5
:1009200000221A7008E0074A7B681360044B01221A
:100930001A70054B01221A700C37BD4680BC7047F7
:1009400034000020380000203C00002080B586B034
:1009500000AF03463960FB80284B1B78002B01D188
:10096000012346E0264B1B78002B01D1012340E0F8
:100970003B68002B03D03B681B68002B01D101238F
:1009800037E0204B1B68002B04D01E4B1B681B68F4
:10099000002B01D101232CE0FB881846FFF764FFF0
:1009A00078617B69002B01DA012322E0154B1B687B
:1009B0001B683B617A6913465B0013445B001A466F
:1009C0003B6913445B88FB817A6913465B001344DF
:1009D0005B001A463B6913441B797B737B7B002BBE
:1009E00006D1FB893968184600F0FCF8034600E0A0
:1009F000012318461837BD4680BD00BF34000020D3
:100A00003C0000203800002080B584B000AF0346D1
:100A10003960FB80194B1B78002B27D0184B1B78B3
:100A2000002B23D03B68002B22D0164B1B68002BD9
:100A300020D0144B1B685B68002B1BD0114B1B682C
:100A40005B68FB60FB881A460321F868FFF736FFF6
:100A5000B860BB68002B0EDBBB689B00FA681344D0
:100A60005B8839681846FFF7BDFE04E000BF02E06E
:100A700000BF00E000BF1037BD4680BD340000203D
:100A80003C0000203800002080B584B000AF034651
:100A9000FB80154B1B78002B1FD0144B1B78002BB1
:100AA0001BD0134B1B68002B19D0114B1B689B6884
:100AB000002B14D0FB881A4601210E48FFF7FEFEDA
:100AC000F860FB68002B0BDB0A4AFB689B001344B1
:100AD0005B881846FFF7AFFE02E000BF00E000BFF2
:100AE0001037BD4680BD00BF340000203C00002010
:100AF00038000020BC1E000880B485B000AF03465B
:100B0000FB800023FB8119E0114B1B681968FA89EF
:100B100013465B0013449B000B441B88FA889A42DF
:100B200009D10B4B1B681968FA8913465B00134403
:100B30009B000B4406E0FB890133FB81FB89022B00
:100B4000E2D9002318461437BD4680BC704700BF69
:100B50004000002080B485B000AF78600023FB81A6
:100B600019E0114B1B685968FA8913465B0013445E
:100B70009B000B445B687A689A4209D10A4B1B6858
:100B80005968FA8913465B0013449B000B4406E046
:100B9000FB890133FB81FB89002BE2D0002318463F
:100BA0001437BD4680BC70474000002080B483B03D
:100BB00000AF78607B68002B06D1084B00221A60DA
:100BC000074B00221A7005E0044A7B681360044B4F
:100BD00001221A700C37BD4680BC704740000020CF
:100BE0004400002080B58AB000AF03463960FB8026
:100BF000214B1B78002B01D1012338E03B68002BEF
:100C000003D03B681B68002B01D101232FE0FB8838
:100C10001846FFF771FF78627B6A002B01D1012330
:100C200025E03B681B897A6A127A934201D9012335
:100C30001DE0FB883B813B681B89DBB2BB727B6A92
:100C40005B68FB603B681B683B617B6A5B8807F104
:100C500008021146184600F06FF9034687F8233062
:100C600097F82330002B14BF01230023DBB2184672
:100C70002837BD4680BD00BF4400002080B582B04B
:100C800000AF0346FB800A4B1B78002B0BD0FB8880
:100C90001846FFF731FF0346002B04D0FB881846A7
:100CA000FFF7F2FE00E000BF0837BD4680BD00BF81
:100CB0004400002080B584B000AF786039601E4BDE
:100CC0001B78002B2ED03B68002B2DD03B681B6877
:100CD000002B29D0194B1968194BA3FB0123DA0803
:100CE00013469B0013445B00CA1A16497B6841F8FF
:100CF0002230124B1B680133104A13607868FFF7EB
:100D000029FFF860FB68002B10D03B681B89FA684C
:100D1000127A93420CD8FB681B8839681846FFF793
:100D200073FE06E000BF04E000BF02E000BF00E089
:100D300000BF1037BD4680BD440000207000002079
:100D4000CDCCCCCC4800002080B582B000AF0121D2
:100D5000052000F011FA01214FF0007000F02AFA8E
:100D60003B1D184600F01EFB134B1B681B89BB8004
:100D7000114B1B689B7ABB710F4B1B68DB7AFB71B5
:100D80000D4B1B685B683A1D1146184600F04EFA81
:100D9000094B1B681B8ABB80074B1B68DB7CFB7104
:100DA000054B1B68DB683A1D1146184600F03EFAF9
:100DB00000BF0837BD4680BD7800002080B588B0F0
:100DC00000AF364B1B681B68184600F0FFFA07F1AE
:100DD0001403184600F0B0FC304B1B689B8ABB82A2
:100DE0002E4B1B689B7DFB752C4B1B68DB7D3B767C
:100DF0002A4B1B681B7E7B76284B1B689B7EBB7532
:100E0000264B1B68DB7EBB76244B1B681B7FFB7667
:100E1000224B1B685B7F3B77204B1B689B7F7B775C
:100E20001E4B1B68DB7FBB771C4B1B6893F8203085
:100E3000FB771A4B1B681B6807F114021146184612
:100E400000F0E8FA154B1B6893F82430BB73134B82
:100E50001B6893F82630FB73104B1B6893F8253002
:100E60003B740E4B1B681B8DBB800C4B1B685B8D52
:100E7000FB800A4B1B689B8D3B81084B1B68DB8DFD
:100E80007B81064B1B6893F830307B743B1D184602
:100E900000F090FB00BF2037BD4680BD78000020E9
:100EA00080B584B000AF78607B68002B35D01D4AD8
:100EB0007B681360FFF748FFFFF780FF0023FB7399
:100EC0000FE0FB7B184A0021D154FB7B174A00211D
:100ED00022F81310FB7B164A0021D154FB7B01330F
:100EE000FB73FB7B052BECD90E4B1B681B680122A7
:100EF0000221184600F07DFE14233B7201237B7211
:100F00000023BB720123FB7207F10803184600F0AF
:100F10008DFE084B01221A7000E000BF1037BD465D
:100F200080BD00BF78000020880000207C000020E9
:100F3000900000207400002080B588B000AF034608
:100F40003960FB803A4B1B78002B06D03B68002BA6
:100F500003D03B689B68002B01D1012363E0FB8831
:100F6000052B02D8FB88FB7701E00023FB77FB7F92
:100F7000304AD35CDBB2002B01D0022353E03B6844
:100F80009B78082B28BF0823DBB2BB743B685B68E7
:100F9000B3F5006F09D304233B743B685B6823F00F
:100FA0006043FB600023BB6008E000233B743B68A8
:100FB0005B68C3F30A03BB600023FB6000237B7400
:100FC0000023BB770CE03B689A68BB7F1A44BB7F69
:100FD000127820333B4403F80D2CBB7F0133BB77E1
:100FE000BB7CBA7F9A42EED3134B1B681B6807F198
:100FF00008021146184600F0C9FB03467B777B7F49
:10100000042B01D102230EE0FB7F3A6811880B4AC2
:1010100022F81310FB7F0A497A7FCA54FB7F054AE6
:101020000121D154002318462037BD4680BD00BFA2
:101030007400002088000020780000207C00002040
:101040009000002080B582B000AF1E4B1B78002BB3
:1010500034D00023FB712DE0FB791B4AD35CDBB25B
:10106000002B24D0194B1B681A68FB791849CB5CFC
:10107000DBB21946104600F059FC0346BB71BB7940
:10108000012B0DD1FB79134A32F81330BB80FB7969
:101090000D4A0021D154BB881846FFF7EFFD06E04A
:1010A000BB79002B03D1FB79074A0021D154FB798E
:1010B0000133FB71FB79052BCED900E000BF083767
:1010C000BD4680BD7400002088000020780000200C
:1010D000900000207C00002080B588B000AF244B39
:1010E0001B78002B40D014E0224B1B681B6807F1D3
:1010F0000C020021184600F09BFC07F10C030B3397
:101100003B60BB7D3B81FB683A4611461846FFF7C2
:10111000D1FD184B1B681B680021184600F045FDE7
:101120000346002BE0D114E0124B1B681B6807F14B
:101130000C020121184600F07BFC07F10C030B3375
:101140003B60BB7D3B81FB683A4611461846FFF782
:10115000B1FD084B1B681B680121184600F025FDF6
:101160000346002BE0D100E000BF2037BD4680BD24
:10117000740000207800002080B483B000AF786055
:101180000B46FB70FB78002B06D0094B9A69084987
:101190007B6813438B6106E0054B9A697B68DB43F0
:1011A000034913408B6100BF0C37BD4680BC7047BC
:1011B0000010024080B483B000AF78600B46FB7033
:1011C000FB78002B06D0094BDA6908497B6813438A
:1011D000CB6106E0054BDA697B68DB4303491340CA
:1011E000CB6100BF0C37BD4680BC70470010024089
:1011F00080B483B000AF78600B46FB70FB78002BA7
:1012000006D0094B1A6908497B6813430B6106E055
:10121000054B1A697B68DB43034913400B6100BF30
:101220000C37BD4680BC70470010024080B489B0C6
:1012300000AF786039600023FB6100233B6100232D
:10124000BB610023FB6000237B610023BB603B6824
:10125000DB7803F00F03FB613B68DB7803F01003DE
:10126000002B05D03B689B781A46FB691343FB6152
:101270003B681B88DBB2002B44D07B681B687B611A
:101280000023BB6138E00122BB6902FA03F3FB6073
:101290003B681B881A46FB6813403B613A69FB6850
:1012A0009A4226D1BB699B00FB600F22FB6802FAC1
:1012B00003F3BB60BB68DB437A6913407B61FA6967
:1012C000FB6802FA03F37A6913437B613B68DB78BE
:1012D000282B05D10122BB699A407B685A6108E03E
:1012E0003B68DB78482B04D10122BB699A407B68BC
:1012F0001A61BB690133BB61BB69072BC3D97B682A
:101300007A691A603B681B88FF2B46D97B685B684B
:101310007B610023BB613AE0BB690833012202FA1A
:1013200003F3FB603B681B881A46FB6813403B6174
:101330003A69FB689A4227D1BB699B00FB600F2288
:10134000FB6802FA03F3BB60BB68DB437A691340B6
:101350007B61FA69FB6802FA03F37A6913437B61E4
:101360003B68DB78282B05D1BB69083301229A4002
:101370007B685A613B68DB78482B05D1BB69083331
:1013800001229A407B681A61BB690133BB61BB696A
:10139000072BC1D97B687A695A6000BF2437BD46E4
:1013A00080BC704780B483B000AF78607B684FF634
:1013B000FF721A807B6802229A707B680422DA70BE
:1013C00000BF0C37BD4680BC7047000080B582B0BE
:1013D00000AF78607B680E4A93420AD101214FF03A
:1013E0000070FFF705FF00214FF00070FFF700FFCE
:1013F00009E001214FF08060FFF7FAFE00214FF075
:101400008060FFF7F5FE00BF0837BD4680BD00BF16
:101410000064004080B485B000AF7860396000237C
:10142000FB730023BB607B681B6823F002027B68B0
:101430001A607B681B6843F001027B681A6002E057
:10144000BB680133BB607B685B6803F00103012B61
:1014500004D0BB684FF6FF729342F1D17B685B68A2
:1014600003F00103012B02D00023FB739CE03B68D7
:101470009B79012B06D17B681B6843F080027B6857
:101480001A6005E07B681B6823F080027B681A60A5
:101490003B68DB79012B06D17B681B6843F0400277
:1014A0007B681A6005E07B681B6823F040027B685C
:1014B0001A603B681B7A012B06D17B681B6843F0DE
:1014C00020027B681A6005E07B681B6823F020021D
:1014D0007B681A603B685B7A012B06D17B681B68CE
:1014E00043F010027B681A6005E07B681B6823F0FC
:1014F00010027B681A603B689B7A012B06D17B68DF
:101500001B6843F008027B681A6005E07B681B6873
:1015100023F008027B681A603B68DB7A012B06D156
:101520007B681B6843F004027B681A6005E07B68F7
:101530001B6823F004027B681A603B689B789A075B
:101540003B68DB781B061A433B681B791B041A4374
:101550003B685B791B051A433B681B88013B1A43B8
:101560007B68DA617B681B6823F001027B681A6084
:101570000023BB6002E0BB680133BB607B685B6833
:1015800003F00103012B04D1BB684FF6FF729342B5
:10159000F1D17B685B6803F00103012B02D10023CA
:1015A000FB7301E00123FB73FB7B18461437BD4638
:1015B00080BC704790B484B000AF78600023FB60BB
:1015C0007B689B7A1A4601239340FB60594BD3F802
:1015D0000032584A43F00103C2F80032554BD3F8A9
:1015E0001C22FB68DB4353491340C1F81C327B6863
:1015F0001B7B002B29D14F4BD3F80C22FB68DB431C
:101600004C491340C1F80C327B68DB881B047A68B4
:101610005288144647497A68927A104643EA04028F
:1016200000F1480341F833207B689B881B047A68EB
:10163000128814463F497A68927A104643EA0402B7
:1016400000F14803DB000B445A607B681B7B012BD5
:1016500028D1384BD3F80C223649FB681343C1F824
:101660000C327B681B881B047A6852881446314907
:101670007A68927A104643EA040200F1480341F87E
:1016800033207B689B881B047A68D28814462949DA
:101690007A68927A104643EA040200F14803DB00BC
:1016A0000B445A607B68DB7A002B09D1214BD3F8BD
:1016B0000422FB68DB431F491340C1F8043207E0F2
:1016C0001C4BD3F804221B49FB681343C1F80432B6
:1016D0007B681B89002B08D1164BD3F81422FB68BA
:1016E000DB4314491340C1F814327B681B89012B7A
:1016F00007D1104BD3F814220E49FB681343C1F8ED
:1017000014327B685B7B012B07D10A4BD3F81C2278
:101710000849FB681343C1F81C32064BD3F800326A
:10172000044A23F00103C2F8003200BF1037BD465F
:1017300090BC70470064004080B483B000AF786014
:101740007B6800229A717B680022DA717B68002234
:101750001A727B6800225A727B6800229A727B6838
:101760000022DA727B6800229A707B680022DA70AD
:101770007B6803221A717B6802225A717B680122FE
:101780001A8000BF0C37BD4680BC704780B485B05E
:1017900000AF786039600023FB737B689B6803F0BF
:1017A0008063B3F1806F02D10023FB7315E07B6887
:1017B0009B6803F00063B3F1006F02D10123FB7358
:1017C0000BE07B689B6803F08053B3F1805F02D12C
:1017D0000223FB7301E00423FB73FB7B042B00F06B
:1017E0009F80FB7B7A6818331B0113441A68FB7BCC
:1017F00002F00102796818331B010B441A603B6840
:101800001B7A002B13D1FB7B7A6818331B0113441E
:1018100019683B681B685B053A68527A1A43FB7B80
:101820000A43796818331B010B441A6015E0FB7BEF
:101830007A6818331B01134419683B685B68DB0046
:101840003A68127A13433A68527A1A43FB7B0A4386
:10185000796818331B010B441A603B689B7A03F0CC
:101860000F03DAB23B689A72FB7B7A6818331B016C
:10187000134404331A68FB7B22F00F027968183393
:101880001B010B4404331A60FB7B7A6818331B017D
:10189000134404331A683B689B7A1946FB7B0A435E
:1018A000796818331B010B4404331A603B689B7B37
:1018B0001A063B685B7B1B041A433B681B7B1B02BD
:1018C0001A433B68DB7A1946FB7B0A4379681B01A4
:1018D0000B4403F5C4731A603B689B7C1A063B6893
:1018E0005B7C1B041A433B681B7C1B021A433B684E
:1018F000DB7B1946FB7B0A4379681B010B4403F52C
:10190000C6731A60FB7B7A6818331B0113441A688C
:10191000FB7B42F00102796818331B010B441A600B
:10192000FB7B18461437BD4680BC704780B485B039
:1019300000AF78600B46FB700023FB60FB78022B46
:1019400012D0022B16DC002B02D0012B06D011E0A6
:101950007B689A68304B1340FB600EE07B689A68A6
:101960002E4B1340FB6008E07B689A682C4B1340B9
:10197000FB6002E00023FB6000BFFB68284A934243
:101980003DD0FB68264A93423CD8FB68254A9342E7
:101990002CD0FB68234A934234D8FB681F4A9342F9
:1019A0002AD0FB681D4A93422CD8FB681E4A9342FA
:1019B00019D0FB681C4A934224D8FB68164A93420C
:1019C00017D0FB68144A93421CD8FB68002B04D044
:1019D000FB68164A934203D014E00223FB6014E034
:1019E0000023FB6011E00023FB600EE00023FB609E
:1019F0000BE00123FB6008E00123FB6005E001230D
:101A0000FB6002E00023FB6000BFFB68DBB218460E
:101A10001437BD4680BC7047030000040003000873
:101A20000000031000000110000100080100000484
:101A300080B485B000AFF8600B467A60FB72FB7A29
:101A4000FA681B331B0113441B68DBB203F0040369
:101A5000DAB27B681A727B681B7A002B0BD1FB7A97
:101A6000FA681B331B0113441B685B0DC3F30A02A6
:101A70007B681A600AE0FB7AFA681B331B01134487
:101A80001B68DB0823F060427B685A60FB7AFA68C7
:101A90001B331B0113441B68DBB203F00203DAB2F1
:101AA0007B685A72FB7AFA681B331B0113440433B8
:101AB0001B68DBB203F00F03DAB27B689A72FB7A21
:101AC000FA681B331B01134404331B681B0ADAB288
:101AD0007B68DA74FB7AFA681B01134403F5DC7344
:101AE0001B68DAB27B68DA72FB7AFA681B0113446E
:101AF00003F5DC731B681B0ADAB27B681A73FB7A86
:101B0000FA681B01134403F5DC731B681B0CDAB283
:101B10007B685A73FB7AFA681B01134403F5DC7384
:101B20001B681B0EDAB27B689A73FB7AFA681B019A
:101B3000134403F5DE731B68DAB27B68DA73FB7A51
:101B4000FA681B01134403F5DE731B681B0ADAB243
:101B50007B681A74FB7AFA681B01134403F5DE7381
:101B60001B681B0CDAB27B685A74FB7AFA681B019B
:101B7000134403F5DE731B681B0EDAB27B689A749C
:101B8000FB7A002B06D1FB68DB6843F02002FB6880
:101B9000DA6005E0FB681B6943F02002FB681A610C
:101BA00000BF1437BD4680BC704780B485B000AF1D
:101BB00078600B46FB700023FB73FB78002B06D18B
:101BC0007B68DB68DBB203F00303FB730BE0FB789D
:101BD000012B06D17B681B69DBB203F00303FB73A7
:101BE00001E00023FB73FB7B18461437BD4680BC25
:101BF000704780B485B000AFF860B9601346FB71E0
:101C0000FB79002B06D0FB685A69BB681A43FB6856
:101C10005A6106E0FB685A69BB68DB431A40FB68FF
:101C20005A6100BF1437BD4680BC704780B487B08E
:101C300000AF786000237B6100233B610F23FB60D2
:101C40007B68DB78002B3AD0274BDB68DB431B0A31
:101C500003F007037B617B69C3F104033B61FA680E
:101C60007B6922FA03F3FB607B685B781A463B6969
:101C700002FA03F37B617B689B781A46FB6813408A
:101C80007A6913437B617B691B017B61174A7B681F
:101C90001B787969C9B213440A4683F800237B682C
:101CA0001B7803F01F0311497A6812785209D2B2E7
:101CB0001046012202FA03F341F820300FE07B685E
:101CC0001B7803F01F0309497A6812785209D2B2CF
:101CD000104601229A4000F1200341F8232000BF62
:101CE0001C37BD4680BC704700ED00E000E100E01D
:101CF00080B400AF054B064A1A60064B4FF00062F5
:101D00009A6000BFBD4680BC704700BF0000002045
:101D100000127A0000ED00E080B400AF00BFFDE7E4
:101D200080B584B000AF114BFB60114BBB6007E086
:101D3000FA68131DFB60BB68191DB96012681A6050
:101D4000BB680C4A9342F3D30B4B7B6004E07B6887
:101D50001A1D7A6000221A607B68084A9342F6D303
:101D6000FFF7C6FFFEF74CFA00BFFDE7141F00089F
:101D70000000002004000020040000209800002043
:101D800003460244934200D1704703F8011BF9E770
:101D90000A44914200F1FF3300D1704710B511F8A9
:101DA000014B914203F8014FF9D110BD000008002A
:101DB000010001000800010002000800010003000A
:101DC0000800000000000000000800010000010001
:101DD00000010201000002000008000100000300F1
:101DE00000040001000003000404000103000000DF
:101DF00000100100030002000008000003000300BF
:101E000000080000030004000008000003000500B3
:101E100000040000030005000404000001000000AD
:101E2000000800010100010000080001010002009B
:101E3000000400010100020004040001020000008F
:101E40000001020102000000010102010200000085
:101E5000020102010200000003010201AC1D0008A2
:101E600004000000C41D0008130000000000000072
:101E70008001000008000000010001008002000055
:101E800008000000020002008003000008000000BB
:101E90000300030081010000080000006C1E000820
:101EA000901E000803000100030003000000000072
:101EB0000000000001000100020002000300030016
:101EC00001000100A81E0008B01E0008BC1E00088A
:101ED000C01E00080000000000640040000801402F
:101EE0000010031800080140000803040400000A61
:101EF00005000000010000000000000000010000DB
:0C1F0000000000000000000001000000D4
:041F0C00F8B500BF65
:041F1000F8B500BF61
:041F140000A24A04D9
:0400000508001D21B1
:00000001FF
